{
  "_format": "hh-sol-artifact-1",
  "contractName": "GetterSetter",
  "sourceName": "contracts/GetterSetter.sol",
  "abi": [
    {
      "anonymous": false,
      "inputs": [
        {
          "indexed": false,
          "internalType": "bytes32",
          "name": "b32",
          "type": "bytes32"
        },
        {
          "indexed": false,
          "internalType": "uint256",
          "name": "u256",
          "type": "uint256"
        },
        {
          "indexed": false,
          "internalType": "bytes32",
          "name": "b322",
          "type": "bytes32"
        }
      ],
      "name": "Output",
      "type": "event"
    },
    {
      "anonymous": false,
      "inputs": [
        {
          "indexed": true,
          "internalType": "address",
          "name": "from",
          "type": "address"
        },
        {
          "indexed": false,
          "internalType": "bytes",
          "name": "value",
          "type": "bytes"
        }
      ],
      "name": "SetBytes",
      "type": "event"
    },
    {
      "anonymous": false,
      "inputs": [
        {
          "indexed": true,
          "internalType": "address",
          "name": "from",
          "type": "address"
        },
        {
          "indexed": true,
          "internalType": "bytes32",
          "name": "value",
          "type": "bytes32"
        }
      ],
      "name": "SetBytes32",
      "type": "event"
    },
    {
      "anonymous": false,
      "inputs": [
        {
          "indexed": true,
          "internalType": "address",
          "name": "from",
          "type": "address"
        },
        {
          "indexed": true,
          "internalType": "uint256",
          "name": "value",
          "type": "uint256"
        }
      ],
      "name": "SetUint256",
      "type": "event"
    },
    {
      "inputs": [],
      "name": "getBytes",
      "outputs": [
        {
          "internalType": "bytes",
          "name": "",
          "type": "bytes"
        }
      ],
      "stateMutability": "view",
      "type": "function"
    },
    {
      "inputs": [],
      "name": "getBytes32",
      "outputs": [
        {
          "internalType": "bytes32",
          "name": "",
          "type": "bytes32"
        }
      ],
      "stateMutability": "view",
      "type": "function"
    },
    {
      "inputs": [],
      "name": "getUint256",
      "outputs": [
        {
          "internalType": "uint256",
          "name": "",
          "type": "uint256"
        }
      ],
      "stateMutability": "view",
      "type": "function"
    },
    {
      "inputs": [],
      "name": "requestId",
      "outputs": [
        {
          "internalType": "bytes32",
          "name": "",
          "type": "bytes32"
        }
      ],
      "stateMutability": "view",
      "type": "function"
    },
    {
      "inputs": [
        {
          "internalType": "bytes32",
          "name": "_requestId",
          "type": "bytes32"
        },
        {
          "internalType": "bytes",
          "name": "_value",
          "type": "bytes"
        }
      ],
      "name": "requestedBytes",
      "outputs": [],
      "stateMutability": "nonpayable",
      "type": "function"
    },
    {
      "inputs": [
        {
          "internalType": "bytes32",
          "name": "_requestId",
          "type": "bytes32"
        },
        {
          "internalType": "bytes32",
          "name": "_value",
          "type": "bytes32"
        }
      ],
      "name": "requestedBytes32",
      "outputs": [],
      "stateMutability": "nonpayable",
      "type": "function"
    },
    {
      "inputs": [
        {
          "internalType": "bytes32",
          "name": "_requestId",
          "type": "bytes32"
        },
        {
          "internalType": "uint256",
          "name": "_value",
          "type": "uint256"
        }
      ],
      "name": "requestedUint256",
      "outputs": [],
      "stateMutability": "nonpayable",
      "type": "function"
    },
    {
      "inputs": [
        {
          "internalType": "bytes",
          "name": "_value",
          "type": "bytes"
        }
      ],
      "name": "setBytes",
      "outputs": [],
      "stateMutability": "nonpayable",
      "type": "function"
    },
    {
      "inputs": [
        {
          "internalType": "bytes32",
          "name": "_value",
          "type": "bytes32"
        }
      ],
      "name": "setBytes32",
      "outputs": [],
      "stateMutability": "nonpayable",
      "type": "function"
    },
    {
      "inputs": [
        {
          "internalType": "uint256",
          "name": "_value",
          "type": "uint256"
        }
      ],
      "name": "setUint256",
      "outputs": [],
      "stateMutability": "nonpayable",
      "type": "function"
    }
  ],
  "bytecode": "0x608060405234801561001057600080fd5b5061091f806100206000396000f3fe608060405234801561001057600080fd5b506004361061009d5760003560e01c806368895979116100665780636889597914610134578063c2b12a7314610152578063d2282dc51461016e578063da359dc81461018a578063ed53e511146101a65761009d565b80626d6cae146100a25780630bcd3b33146100c05780631f903037146100de5780633345b4d0146100fc57806346ddd1ff14610118575b600080fd5b6100aa6101c2565b6040516100b791906106b5565b60405180910390f35b6100c86101c8565b6040516100d591906106d0565b60405180910390f35b6100e6610256565b6040516100f391906106b5565b60405180910390f35b610116600480360381019061011191906105a8565b61025c565b005b610132600480360381019061012d919061054c565b610270565b005b61013c610284565b60405161014991906106f2565b60405180910390f35b61016c600480360381019061016791906104df565b61028a565b005b61018860048036038101906101839190610631565b6102d8565b005b6101a4600480360381019061019f91906105e8565b610326565b005b6101c060048036038101906101bb919061050c565b61038e565b005b60025481565b600380546101d5906107d5565b80601f0160208091040260200160405190810160405280929190818152602001828054610201906107d5565b801561024e5780601f106102235761010080835404028352916020019161024e565b820191906000526020600020905b81548152906001019060200180831161023157829003601f168201915b505050505081565b60005481565b8160028190555061026c816102d8565b5050565b8160028190555061028081610326565b5050565b60015481565b80600081905550803373ffffffffffffffffffffffffffffffffffffffff167fdc73ee99832252105ed74a404690c2f10ad1b294cbbeb0ff5cded48ef2aa437d60405160405180910390a350565b80600181905550803373ffffffffffffffffffffffffffffffffffffffff167fd943f063acdb1c6f206cf6a3f6d1ba39687bcc07feb7f44019bdbd4773c9c28d60405160405180910390a350565b806003908051906020019061033c9291906103a2565b503373ffffffffffffffffffffffffffffffffffffffff167ff22a519d38e59bc517532f666f8da532fdd5356e68d617191e82a8fdcc8abdcf8260405161038391906106d0565b60405180910390a250565b8160028190555061039e8161028a565b5050565b8280546103ae906107d5565b90600052602060002090601f0160209004810192826103d05760008555610417565b82601f106103e957805160ff1916838001178555610417565b82800160010185558215610417579182015b828111156104165782518255916020019190600101906103fb565b5b5090506104249190610428565b5090565b5b80821115610441576000816000905550600101610429565b5090565b600061045861045384610732565b61070d565b9050828152602081018484840111156104745761047361089b565b5b61047f848285610793565b509392505050565b600081359050610496816108bb565b92915050565b600082601f8301126104b1576104b0610896565b5b81356104c1848260208601610445565b91505092915050565b6000813590506104d9816108d2565b92915050565b6000602082840312156104f5576104f46108a5565b5b600061050384828501610487565b91505092915050565b60008060408385031215610523576105226108a5565b5b600061053185828601610487565b925050602061054285828601610487565b9150509250929050565b60008060408385031215610563576105626108a5565b5b600061057185828601610487565b925050602083013567ffffffffffffffff811115610592576105916108a0565b5b61059e8582860161049c565b9150509250929050565b600080604083850312156105bf576105be6108a5565b5b60006105cd85828601610487565b92505060206105de858286016104ca565b9150509250929050565b6000602082840312156105fe576105fd6108a5565b5b600082013567ffffffffffffffff81111561061c5761061b6108a0565b5b6106288482850161049c565b91505092915050565b600060208284031215610647576106466108a5565b5b6000610655848285016104ca565b91505092915050565b6106678161077f565b82525050565b600061067882610763565b610682818561076e565b93506106928185602086016107a2565b61069b816108aa565b840191505092915050565b6106af81610789565b82525050565b60006020820190506106ca600083018461065e565b92915050565b600060208201905081810360008301526106ea818461066d565b905092915050565b600060208201905061070760008301846106a6565b92915050565b6000610717610728565b90506107238282610807565b919050565b6000604051905090565b600067ffffffffffffffff82111561074d5761074c610867565b5b610756826108aa565b9050602081019050919050565b600081519050919050565b600082825260208201905092915050565b6000819050919050565b6000819050919050565b82818337600083830152505050565b60005b838110156107c05780820151818401526020810190506107a5565b838111156107cf576000848401525b50505050565b600060028204905060018216806107ed57607f821691505b6020821081141561080157610800610838565b5b50919050565b610810826108aa565b810181811067ffffffffffffffff8211171561082f5761082e610867565b5b80604052505050565b7f4e487b7100000000000000000000000000000000000000000000000000000000600052602260045260246000fd5b7f4e487b7100000000000000000000000000000000000000000000000000000000600052604160045260246000fd5b600080fd5b600080fd5b600080fd5b600080fd5b6000601f19601f8301169050919050565b6108c48161077f565b81146108cf57600080fd5b50565b6108db81610789565b81146108e657600080fd5b5056fea26469706673582212202e4105382e8c9c09727afd3d7a12f3036747704e84f0ebdc596b6741a464276164736f6c63430008060033",
  "linkReferences": {},
  "deployedLinkReferences": {}
}