{"contracts/GetterSetter.sol":{"GetterSetter":{"abi":[{"anonymous":false,"inputs":[{"indexed":false,"internalType":"bytes32","name":"b32","type":"bytes32"},{"indexed":false,"internalType":"uint256","name":"u256","type":"uint256"},{"indexed":false,"internalType":"bytes32","name":"b322","type":"bytes32"}],"name":"Output","type":"event"},{"anonymous":false,"inputs":[{"indexed":true,"internalType":"address","name":"from","type":"address"},{"indexed":false,"internalType":"bytes","name":"value","type":"bytes"}],"name":"SetBytes","type":"event"},{"anonymous":false,"inputs":[{"indexed":true,"internalType":"address","name":"from","type":"address"},{"indexed":true,"internalType":"bytes32","name":"value","type":"bytes32"}],"name":"SetBytes32","type":"event"},{"anonymous":false,"inputs":[{"indexed":true,"internalType":"address","name":"from","type":"address"},{"indexed":true,"internalType":"uint256","name":"value","type":"uint256"}],"name":"SetUint256","type":"event"},{"inputs":[],"name":"getBytes","outputs":[{"internalType":"bytes","name":"","type":"bytes"}],"stateMutability":"view","type":"function"},{"inputs":[],"name":"getBytes32","outputs":[{"internalType":"bytes32","name":"","type":"bytes32"}],"stateMutability":"view","type":"function"},{"inputs":[],"name":"getUint256","outputs":[{"internalType":"uint256","name":"","type":"uint256"}],"stateMutability":"view","type":"function"},{"inputs":[],"name":"requestId","outputs":[{"internalType":"bytes32","name":"","type":"bytes32"}],"stateMutability":"view","type":"function"},{"inputs":[{"internalType":"bytes32","name":"_requestId","type":"bytes32"},{"internalType":"bytes","name":"_value","type":"bytes"}],"name":"requestedBytes","outputs":[],"stateMutability":"nonpayable","type":"function"},{"inputs":[{"internalType":"bytes32","name":"_requestId","type":"bytes32"},{"internalType":"bytes32","name":"_value","type":"bytes32"}],"name":"requestedBytes32","outputs":[],"stateMutability":"nonpayable","type":"function"},{"inputs":[{"internalType":"bytes32","name":"_requestId","type":"bytes32"},{"internalType":"uint256","name":"_value","type":"uint256"}],"name":"requestedUint256","outputs":[],"stateMutability":"nonpayable","type":"function"},{"inputs":[{"internalType":"bytes","name":"_value","type":"bytes"}],"name":"setBytes","outputs":[],"stateMutability":"nonpayable","type":"function"},{"inputs":[{"internalType":"bytes32","name":"_value","type":"bytes32"}],"name":"setBytes32","outputs":[],"stateMutability":"nonpayable","type":"function"},{"inputs":[{"internalType":"uint256","name":"_value","type":"uint256"}],"name":"setUint256","outputs":[],"stateMutability":"nonpayable","type":"function"}],"evm":{"bytecode":{"linkReferences":{},"object":"608060405234801561001057600080fd5b5061091f806100206000396000f3fe608060405234801561001057600080fd5b506004361061009d5760003560e01c806368895979116100665780636889597914610134578063c2b12a7314610152578063d2282dc51461016e578063da359dc81461018a578063ed53e511146101a65761009d565b80626d6cae146100a25780630bcd3b33146100c05780631f903037146100de5780633345b4d0146100fc57806346ddd1ff14610118575b600080fd5b6100aa6101c2565b6040516100b791906106b5565b60405180910390f35b6100c86101c8565b6040516100d591906106d0565b60405180910390f35b6100e6610256565b6040516100f391906106b5565b60405180910390f35b610116600480360381019061011191906105a8565b61025c565b005b610132600480360381019061012d919061054c565b610270565b005b61013c610284565b60405161014991906106f2565b60405180910390f35b61016c600480360381019061016791906104df565b61028a565b005b61018860048036038101906101839190610631565b6102d8565b005b6101a4600480360381019061019f91906105e8565b610326565b005b6101c060048036038101906101bb919061050c565b61038e565b005b60025481565b600380546101d5906107d5565b80601f0160208091040260200160405190810160405280929190818152602001828054610201906107d5565b801561024e5780601f106102235761010080835404028352916020019161024e565b820191906000526020600020905b81548152906001019060200180831161023157829003601f168201915b505050505081565b60005481565b8160028190555061026c816102d8565b5050565b8160028190555061028081610326565b5050565b60015481565b80600081905550803373ffffffffffffffffffffffffffffffffffffffff167fdc73ee99832252105ed74a404690c2f10ad1b294cbbeb0ff5cded48ef2aa437d60405160405180910390a350565b80600181905550803373ffffffffffffffffffffffffffffffffffffffff167fd943f063acdb1c6f206cf6a3f6d1ba39687bcc07feb7f44019bdbd4773c9c28d60405160405180910390a350565b806003908051906020019061033c9291906103a2565b503373ffffffffffffffffffffffffffffffffffffffff167ff22a519d38e59bc517532f666f8da532fdd5356e68d617191e82a8fdcc8abdcf8260405161038391906106d0565b60405180910390a250565b8160028190555061039e8161028a565b5050565b8280546103ae906107d5565b90600052602060002090601f0160209004810192826103d05760008555610417565b82601f106103e957805160ff1916838001178555610417565b82800160010185558215610417579182015b828111156104165782518255916020019190600101906103fb565b5b5090506104249190610428565b5090565b5b80821115610441576000816000905550600101610429565b5090565b600061045861045384610732565b61070d565b9050828152602081018484840111156104745761047361089b565b5b61047f848285610793565b509392505050565b600081359050610496816108bb565b92915050565b600082601f8301126104b1576104b0610896565b5b81356104c1848260208601610445565b91505092915050565b6000813590506104d9816108d2565b92915050565b6000602082840312156104f5576104f46108a5565b5b600061050384828501610487565b91505092915050565b60008060408385031215610523576105226108a5565b5b600061053185828601610487565b925050602061054285828601610487565b9150509250929050565b60008060408385031215610563576105626108a5565b5b600061057185828601610487565b925050602083013567ffffffffffffffff811115610592576105916108a0565b5b61059e8582860161049c565b9150509250929050565b600080604083850312156105bf576105be6108a5565b5b60006105cd85828601610487565b92505060206105de858286016104ca565b9150509250929050565b6000602082840312156105fe576105fd6108a5565b5b600082013567ffffffffffffffff81111561061c5761061b6108a0565b5b6106288482850161049c565b91505092915050565b600060208284031215610647576106466108a5565b5b6000610655848285016104ca565b91505092915050565b6106678161077f565b82525050565b600061067882610763565b610682818561076e565b93506106928185602086016107a2565b61069b816108aa565b840191505092915050565b6106af81610789565b82525050565b60006020820190506106ca600083018461065e565b92915050565b600060208201905081810360008301526106ea818461066d565b905092915050565b600060208201905061070760008301846106a6565b92915050565b6000610717610728565b90506107238282610807565b919050565b6000604051905090565b600067ffffffffffffffff82111561074d5761074c610867565b5b610756826108aa565b9050602081019050919050565b600081519050919050565b600082825260208201905092915050565b6000819050919050565b6000819050919050565b82818337600083830152505050565b60005b838110156107c05780820151818401526020810190506107a5565b838111156107cf576000848401525b50505050565b600060028204905060018216806107ed57607f821691505b6020821081141561080157610800610838565b5b50919050565b610810826108aa565b810181811067ffffffffffffffff8211171561082f5761082e610867565b5b80604052505050565b7f4e487b7100000000000000000000000000000000000000000000000000000000600052602260045260246000fd5b7f4e487b7100000000000000000000000000000000000000000000000000000000600052604160045260246000fd5b600080fd5b600080fd5b600080fd5b600080fd5b6000601f19601f8301169050919050565b6108c48161077f565b81146108cf57600080fd5b50565b6108db81610789565b81146108e657600080fd5b5056fea26469706673582212202e4105382e8c9c09727afd3d7a12f3036747704e84f0ebdc596b6741a464276164736f6c63430008060033","opcodes":"PUSH1 0x80 PUSH1 0x40 MSTORE CALLVALUE DUP1 ISZERO PUSH2 0x10 JUMPI PUSH1 0x0 DUP1 REVERT JUMPDEST POP PUSH2 0x91F DUP1 PUSH2 0x20 PUSH1 0x0 CODECOPY PUSH1 0x0 RETURN INVALID PUSH1 0x80 PUSH1 0x40 MSTORE CALLVALUE DUP1 ISZERO PUSH2 0x10 JUMPI PUSH1 0x0 DUP1 REVERT JUMPDEST POP PUSH1 0x4 CALLDATASIZE LT PUSH2 0x9D JUMPI PUSH1 0x0 CALLDATALOAD PUSH1 0xE0 SHR DUP1 PUSH4 0x68895979 GT PUSH2 0x66 JUMPI DUP1 PUSH4 0x68895979 EQ PUSH2 0x134 JUMPI DUP1 PUSH4 0xC2B12A73 EQ PUSH2 0x152 JUMPI DUP1 PUSH4 0xD2282DC5 EQ PUSH2 0x16E JUMPI DUP1 PUSH4 0xDA359DC8 EQ PUSH2 0x18A JUMPI DUP1 PUSH4 0xED53E511 EQ PUSH2 0x1A6 JUMPI PUSH2 0x9D JUMP JUMPDEST DUP1 PUSH3 0x6D6CAE EQ PUSH2 0xA2 JUMPI DUP1 PUSH4 0xBCD3B33 EQ PUSH2 0xC0 JUMPI DUP1 PUSH4 0x1F903037 EQ PUSH2 0xDE JUMPI DUP1 PUSH4 0x3345B4D0 EQ PUSH2 0xFC JUMPI DUP1 PUSH4 0x46DDD1FF EQ PUSH2 0x118 JUMPI JUMPDEST PUSH1 0x0 DUP1 REVERT JUMPDEST PUSH2 0xAA PUSH2 0x1C2 JUMP JUMPDEST PUSH1 0x40 MLOAD PUSH2 0xB7 SWAP2 SWAP1 PUSH2 0x6B5 JUMP JUMPDEST PUSH1 0x40 MLOAD DUP1 SWAP2 SUB SWAP1 RETURN JUMPDEST PUSH2 0xC8 PUSH2 0x1C8 JUMP JUMPDEST PUSH1 0x40 MLOAD PUSH2 0xD5 SWAP2 SWAP1 PUSH2 0x6D0 JUMP JUMPDEST PUSH1 0x40 MLOAD DUP1 SWAP2 SUB SWAP1 RETURN JUMPDEST PUSH2 0xE6 PUSH2 0x256 JUMP JUMPDEST PUSH1 0x40 MLOAD PUSH2 0xF3 SWAP2 SWAP1 PUSH2 0x6B5 JUMP JUMPDEST PUSH1 0x40 MLOAD DUP1 SWAP2 SUB SWAP1 RETURN JUMPDEST PUSH2 0x116 PUSH1 0x4 DUP1 CALLDATASIZE SUB DUP2 ADD SWAP1 PUSH2 0x111 SWAP2 SWAP1 PUSH2 0x5A8 JUMP JUMPDEST PUSH2 0x25C JUMP JUMPDEST STOP JUMPDEST PUSH2 0x132 PUSH1 0x4 DUP1 CALLDATASIZE SUB DUP2 ADD SWAP1 PUSH2 0x12D SWAP2 SWAP1 PUSH2 0x54C JUMP JUMPDEST PUSH2 0x270 JUMP JUMPDEST STOP JUMPDEST PUSH2 0x13C PUSH2 0x284 JUMP JUMPDEST PUSH1 0x40 MLOAD PUSH2 0x149 SWAP2 SWAP1 PUSH2 0x6F2 JUMP JUMPDEST PUSH1 0x40 MLOAD DUP1 SWAP2 SUB SWAP1 RETURN JUMPDEST PUSH2 0x16C PUSH1 0x4 DUP1 CALLDATASIZE SUB DUP2 ADD SWAP1 PUSH2 0x167 SWAP2 SWAP1 PUSH2 0x4DF JUMP JUMPDEST PUSH2 0x28A JUMP JUMPDEST STOP JUMPDEST PUSH2 0x188 PUSH1 0x4 DUP1 CALLDATASIZE SUB DUP2 ADD SWAP1 PUSH2 0x183 SWAP2 SWAP1 PUSH2 0x631 JUMP JUMPDEST PUSH2 0x2D8 JUMP JUMPDEST STOP JUMPDEST PUSH2 0x1A4 PUSH1 0x4 DUP1 CALLDATASIZE SUB DUP2 ADD SWAP1 PUSH2 0x19F SWAP2 SWAP1 PUSH2 0x5E8 JUMP JUMPDEST PUSH2 0x326 JUMP JUMPDEST STOP JUMPDEST PUSH2 0x1C0 PUSH1 0x4 DUP1 CALLDATASIZE SUB DUP2 ADD SWAP1 PUSH2 0x1BB SWAP2 SWAP1 PUSH2 0x50C JUMP JUMPDEST PUSH2 0x38E JUMP JUMPDEST STOP JUMPDEST PUSH1 0x2 SLOAD DUP2 JUMP JUMPDEST PUSH1 0x3 DUP1 SLOAD PUSH2 0x1D5 SWAP1 PUSH2 0x7D5 JUMP JUMPDEST DUP1 PUSH1 0x1F ADD PUSH1 0x20 DUP1 SWAP2 DIV MUL PUSH1 0x20 ADD PUSH1 0x40 MLOAD SWAP1 DUP2 ADD PUSH1 0x40 MSTORE DUP1 SWAP3 SWAP2 SWAP1 DUP2 DUP2 MSTORE PUSH1 0x20 ADD DUP3 DUP1 SLOAD PUSH2 0x201 SWAP1 PUSH2 0x7D5 JUMP JUMPDEST DUP1 ISZERO PUSH2 0x24E JUMPI DUP1 PUSH1 0x1F LT PUSH2 0x223 JUMPI PUSH2 0x100 DUP1 DUP4 SLOAD DIV MUL DUP4 MSTORE SWAP2 PUSH1 0x20 ADD SWAP2 PUSH2 0x24E JUMP JUMPDEST DUP3 ADD SWAP2 SWAP1 PUSH1 0x0 MSTORE PUSH1 0x20 PUSH1 0x0 KECCAK256 SWAP1 JUMPDEST DUP2 SLOAD DUP2 MSTORE SWAP1 PUSH1 0x1 ADD SWAP1 PUSH1 0x20 ADD DUP1 DUP4 GT PUSH2 0x231 JUMPI DUP3 SWAP1 SUB PUSH1 0x1F AND DUP3 ADD SWAP2 JUMPDEST POP POP POP POP POP DUP2 JUMP JUMPDEST PUSH1 0x0 SLOAD DUP2 JUMP JUMPDEST DUP2 PUSH1 0x2 DUP2 SWAP1 SSTORE POP PUSH2 0x26C DUP2 PUSH2 0x2D8 JUMP JUMPDEST POP POP JUMP JUMPDEST DUP2 PUSH1 0x2 DUP2 SWAP1 SSTORE POP PUSH2 0x280 DUP2 PUSH2 0x326 JUMP JUMPDEST POP POP JUMP JUMPDEST PUSH1 0x1 SLOAD DUP2 JUMP JUMPDEST DUP1 PUSH1 0x0 DUP2 SWAP1 SSTORE POP DUP1 CALLER PUSH20 0xFFFFFFFFFFFFFFFFFFFFFFFFFFFFFFFFFFFFFFFF AND PUSH32 0xDC73EE99832252105ED74A404690C2F10AD1B294CBBEB0FF5CDED48EF2AA437D PUSH1 0x40 MLOAD PUSH1 0x40 MLOAD DUP1 SWAP2 SUB SWAP1 LOG3 POP JUMP JUMPDEST DUP1 PUSH1 0x1 DUP2 SWAP1 SSTORE POP DUP1 CALLER PUSH20 0xFFFFFFFFFFFFFFFFFFFFFFFFFFFFFFFFFFFFFFFF AND PUSH32 0xD943F063ACDB1C6F206CF6A3F6D1BA39687BCC07FEB7F44019BDBD4773C9C28D PUSH1 0x40 MLOAD PUSH1 0x40 MLOAD DUP1 SWAP2 SUB SWAP1 LOG3 POP JUMP JUMPDEST DUP1 PUSH1 0x3 SWAP1 DUP1 MLOAD SWAP1 PUSH1 0x20 ADD SWAP1 PUSH2 0x33C SWAP3 SWAP2 SWAP1 PUSH2 0x3A2 JUMP JUMPDEST POP CALLER PUSH20 0xFFFFFFFFFFFFFFFFFFFFFFFFFFFFFFFFFFFFFFFF AND PUSH32 0xF22A519D38E59BC517532F666F8DA532FDD5356E68D617191E82A8FDCC8ABDCF DUP3 PUSH1 0x40 MLOAD PUSH2 0x383 SWAP2 SWAP1 PUSH2 0x6D0 JUMP JUMPDEST PUSH1 0x40 MLOAD DUP1 SWAP2 SUB SWAP1 LOG2 POP JUMP JUMPDEST DUP2 PUSH1 0x2 DUP2 SWAP1 SSTORE POP PUSH2 0x39E DUP2 PUSH2 0x28A JUMP JUMPDEST POP POP JUMP JUMPDEST DUP3 DUP1 SLOAD PUSH2 0x3AE SWAP1 PUSH2 0x7D5 JUMP JUMPDEST SWAP1 PUSH1 0x0 MSTORE PUSH1 0x20 PUSH1 0x0 KECCAK256 SWAP1 PUSH1 0x1F ADD PUSH1 0x20 SWAP1 DIV DUP2 ADD SWAP3 DUP3 PUSH2 0x3D0 JUMPI PUSH1 0x0 DUP6 SSTORE PUSH2 0x417 JUMP JUMPDEST DUP3 PUSH1 0x1F LT PUSH2 0x3E9 JUMPI DUP1 MLOAD PUSH1 0xFF NOT AND DUP4 DUP1 ADD OR DUP6 SSTORE PUSH2 0x417 JUMP JUMPDEST DUP3 DUP1 ADD PUSH1 0x1 ADD DUP6 SSTORE DUP3 ISZERO PUSH2 0x417 JUMPI SWAP2 DUP3 ADD JUMPDEST DUP3 DUP2 GT ISZERO PUSH2 0x416 JUMPI DUP3 MLOAD DUP3 SSTORE SWAP2 PUSH1 0x20 ADD SWAP2 SWAP1 PUSH1 0x1 ADD SWAP1 PUSH2 0x3FB JUMP JUMPDEST JUMPDEST POP SWAP1 POP PUSH2 0x424 SWAP2 SWAP1 PUSH2 0x428 JUMP JUMPDEST POP SWAP1 JUMP JUMPDEST JUMPDEST DUP1 DUP3 GT ISZERO PUSH2 0x441 JUMPI PUSH1 0x0 DUP2 PUSH1 0x0 SWAP1 SSTORE POP PUSH1 0x1 ADD PUSH2 0x429 JUMP JUMPDEST POP SWAP1 JUMP JUMPDEST PUSH1 0x0 PUSH2 0x458 PUSH2 0x453 DUP5 PUSH2 0x732 JUMP JUMPDEST PUSH2 0x70D JUMP JUMPDEST SWAP1 POP DUP3 DUP2 MSTORE PUSH1 0x20 DUP2 ADD DUP5 DUP5 DUP5 ADD GT ISZERO PUSH2 0x474 JUMPI PUSH2 0x473 PUSH2 0x89B JUMP JUMPDEST JUMPDEST PUSH2 0x47F DUP5 DUP3 DUP6 PUSH2 0x793 JUMP JUMPDEST POP SWAP4 SWAP3 POP POP POP JUMP JUMPDEST PUSH1 0x0 DUP2 CALLDATALOAD SWAP1 POP PUSH2 0x496 DUP2 PUSH2 0x8BB JUMP JUMPDEST SWAP3 SWAP2 POP POP JUMP JUMPDEST PUSH1 0x0 DUP3 PUSH1 0x1F DUP4 ADD SLT PUSH2 0x4B1 JUMPI PUSH2 0x4B0 PUSH2 0x896 JUMP JUMPDEST JUMPDEST DUP2 CALLDATALOAD PUSH2 0x4C1 DUP5 DUP3 PUSH1 0x20 DUP7 ADD PUSH2 0x445 JUMP JUMPDEST SWAP2 POP POP SWAP3 SWAP2 POP POP JUMP JUMPDEST PUSH1 0x0 DUP2 CALLDATALOAD SWAP1 POP PUSH2 0x4D9 DUP2 PUSH2 0x8D2 JUMP JUMPDEST SWAP3 SWAP2 POP POP JUMP JUMPDEST PUSH1 0x0 PUSH1 0x20 DUP3 DUP5 SUB SLT ISZERO PUSH2 0x4F5 JUMPI PUSH2 0x4F4 PUSH2 0x8A5 JUMP JUMPDEST JUMPDEST PUSH1 0x0 PUSH2 0x503 DUP5 DUP3 DUP6 ADD PUSH2 0x487 JUMP JUMPDEST SWAP2 POP POP SWAP3 SWAP2 POP POP JUMP JUMPDEST PUSH1 0x0 DUP1 PUSH1 0x40 DUP4 DUP6 SUB SLT ISZERO PUSH2 0x523 JUMPI PUSH2 0x522 PUSH2 0x8A5 JUMP JUMPDEST JUMPDEST PUSH1 0x0 PUSH2 0x531 DUP6 DUP3 DUP7 ADD PUSH2 0x487 JUMP JUMPDEST SWAP3 POP POP PUSH1 0x20 PUSH2 0x542 DUP6 DUP3 DUP7 ADD PUSH2 0x487 JUMP JUMPDEST SWAP2 POP POP SWAP3 POP SWAP3 SWAP1 POP JUMP JUMPDEST PUSH1 0x0 DUP1 PUSH1 0x40 DUP4 DUP6 SUB SLT ISZERO PUSH2 0x563 JUMPI PUSH2 0x562 PUSH2 0x8A5 JUMP JUMPDEST JUMPDEST PUSH1 0x0 PUSH2 0x571 DUP6 DUP3 DUP7 ADD PUSH2 0x487 JUMP JUMPDEST SWAP3 POP POP PUSH1 0x20 DUP4 ADD CALLDATALOAD PUSH8 0xFFFFFFFFFFFFFFFF DUP2 GT ISZERO PUSH2 0x592 JUMPI PUSH2 0x591 PUSH2 0x8A0 JUMP JUMPDEST JUMPDEST PUSH2 0x59E DUP6 DUP3 DUP7 ADD PUSH2 0x49C JUMP JUMPDEST SWAP2 POP POP SWAP3 POP SWAP3 SWAP1 POP JUMP JUMPDEST PUSH1 0x0 DUP1 PUSH1 0x40 DUP4 DUP6 SUB SLT ISZERO PUSH2 0x5BF JUMPI PUSH2 0x5BE PUSH2 0x8A5 JUMP JUMPDEST JUMPDEST PUSH1 0x0 PUSH2 0x5CD DUP6 DUP3 DUP7 ADD PUSH2 0x487 JUMP JUMPDEST SWAP3 POP POP PUSH1 0x20 PUSH2 0x5DE DUP6 DUP3 DUP7 ADD PUSH2 0x4CA JUMP JUMPDEST SWAP2 POP POP SWAP3 POP SWAP3 SWAP1 POP JUMP JUMPDEST PUSH1 0x0 PUSH1 0x20 DUP3 DUP5 SUB SLT ISZERO PUSH2 0x5FE JUMPI PUSH2 0x5FD PUSH2 0x8A5 JUMP JUMPDEST JUMPDEST PUSH1 0x0 DUP3 ADD CALLDATALOAD PUSH8 0xFFFFFFFFFFFFFFFF DUP2 GT ISZERO PUSH2 0x61C JUMPI PUSH2 0x61B PUSH2 0x8A0 JUMP JUMPDEST JUMPDEST PUSH2 0x628 DUP5 DUP3 DUP6 ADD PUSH2 0x49C JUMP JUMPDEST SWAP2 POP POP SWAP3 SWAP2 POP POP JUMP JUMPDEST PUSH1 0x0 PUSH1 0x20 DUP3 DUP5 SUB SLT ISZERO PUSH2 0x647 JUMPI PUSH2 0x646 PUSH2 0x8A5 JUMP JUMPDEST JUMPDEST PUSH1 0x0 PUSH2 0x655 DUP5 DUP3 DUP6 ADD PUSH2 0x4CA JUMP JUMPDEST SWAP2 POP POP SWAP3 SWAP2 POP POP JUMP JUMPDEST PUSH2 0x667 DUP2 PUSH2 0x77F JUMP JUMPDEST DUP3 MSTORE POP POP JUMP JUMPDEST PUSH1 0x0 PUSH2 0x678 DUP3 PUSH2 0x763 JUMP JUMPDEST PUSH2 0x682 DUP2 DUP6 PUSH2 0x76E JUMP JUMPDEST SWAP4 POP PUSH2 0x692 DUP2 DUP6 PUSH1 0x20 DUP7 ADD PUSH2 0x7A2 JUMP JUMPDEST PUSH2 0x69B DUP2 PUSH2 0x8AA JUMP JUMPDEST DUP5 ADD SWAP2 POP POP SWAP3 SWAP2 POP POP JUMP JUMPDEST PUSH2 0x6AF DUP2 PUSH2 0x789 JUMP JUMPDEST DUP3 MSTORE POP POP JUMP JUMPDEST PUSH1 0x0 PUSH1 0x20 DUP3 ADD SWAP1 POP PUSH2 0x6CA PUSH1 0x0 DUP4 ADD DUP5 PUSH2 0x65E JUMP JUMPDEST SWAP3 SWAP2 POP POP JUMP JUMPDEST PUSH1 0x0 PUSH1 0x20 DUP3 ADD SWAP1 POP DUP2 DUP2 SUB PUSH1 0x0 DUP4 ADD MSTORE PUSH2 0x6EA DUP2 DUP5 PUSH2 0x66D JUMP JUMPDEST SWAP1 POP SWAP3 SWAP2 POP POP JUMP JUMPDEST PUSH1 0x0 PUSH1 0x20 DUP3 ADD SWAP1 POP PUSH2 0x707 PUSH1 0x0 DUP4 ADD DUP5 PUSH2 0x6A6 JUMP JUMPDEST SWAP3 SWAP2 POP POP JUMP JUMPDEST PUSH1 0x0 PUSH2 0x717 PUSH2 0x728 JUMP JUMPDEST SWAP1 POP PUSH2 0x723 DUP3 DUP3 PUSH2 0x807 JUMP JUMPDEST SWAP2 SWAP1 POP JUMP JUMPDEST PUSH1 0x0 PUSH1 0x40 MLOAD SWAP1 POP SWAP1 JUMP JUMPDEST PUSH1 0x0 PUSH8 0xFFFFFFFFFFFFFFFF DUP3 GT ISZERO PUSH2 0x74D JUMPI PUSH2 0x74C PUSH2 0x867 JUMP JUMPDEST JUMPDEST PUSH2 0x756 DUP3 PUSH2 0x8AA JUMP JUMPDEST SWAP1 POP PUSH1 0x20 DUP2 ADD SWAP1 POP SWAP2 SWAP1 POP JUMP JUMPDEST PUSH1 0x0 DUP2 MLOAD SWAP1 POP SWAP2 SWAP1 POP JUMP JUMPDEST PUSH1 0x0 DUP3 DUP3 MSTORE PUSH1 0x20 DUP3 ADD SWAP1 POP SWAP3 SWAP2 POP POP JUMP JUMPDEST PUSH1 0x0 DUP2 SWAP1 POP SWAP2 SWAP1 POP JUMP JUMPDEST PUSH1 0x0 DUP2 SWAP1 POP SWAP2 SWAP1 POP JUMP JUMPDEST DUP3 DUP2 DUP4 CALLDATACOPY PUSH1 0x0 DUP4 DUP4 ADD MSTORE POP POP POP JUMP JUMPDEST PUSH1 0x0 JUMPDEST DUP4 DUP2 LT ISZERO PUSH2 0x7C0 JUMPI DUP1 DUP3 ADD MLOAD DUP2 DUP5 ADD MSTORE PUSH1 0x20 DUP2 ADD SWAP1 POP PUSH2 0x7A5 JUMP JUMPDEST DUP4 DUP2 GT ISZERO PUSH2 0x7CF JUMPI PUSH1 0x0 DUP5 DUP5 ADD MSTORE JUMPDEST POP POP POP POP JUMP JUMPDEST PUSH1 0x0 PUSH1 0x2 DUP3 DIV SWAP1 POP PUSH1 0x1 DUP3 AND DUP1 PUSH2 0x7ED JUMPI PUSH1 0x7F DUP3 AND SWAP2 POP JUMPDEST PUSH1 0x20 DUP3 LT DUP2 EQ ISZERO PUSH2 0x801 JUMPI PUSH2 0x800 PUSH2 0x838 JUMP JUMPDEST JUMPDEST POP SWAP2 SWAP1 POP JUMP JUMPDEST PUSH2 0x810 DUP3 PUSH2 0x8AA JUMP JUMPDEST DUP2 ADD DUP2 DUP2 LT PUSH8 0xFFFFFFFFFFFFFFFF DUP3 GT OR ISZERO PUSH2 0x82F JUMPI PUSH2 0x82E PUSH2 0x867 JUMP JUMPDEST JUMPDEST DUP1 PUSH1 0x40 MSTORE POP POP POP JUMP JUMPDEST PUSH32 0x4E487B7100000000000000000000000000000000000000000000000000000000 PUSH1 0x0 MSTORE PUSH1 0x22 PUSH1 0x4 MSTORE PUSH1 0x24 PUSH1 0x0 REVERT JUMPDEST PUSH32 0x4E487B7100000000000000000000000000000000000000000000000000000000 PUSH1 0x0 MSTORE PUSH1 0x41 PUSH1 0x4 MSTORE PUSH1 0x24 PUSH1 0x0 REVERT JUMPDEST PUSH1 0x0 DUP1 REVERT JUMPDEST PUSH1 0x0 DUP1 REVERT JUMPDEST PUSH1 0x0 DUP1 REVERT JUMPDEST PUSH1 0x0 DUP1 REVERT JUMPDEST PUSH1 0x0 PUSH1 0x1F NOT PUSH1 0x1F DUP4 ADD AND SWAP1 POP SWAP2 SWAP1 POP JUMP JUMPDEST PUSH2 0x8C4 DUP2 PUSH2 0x77F JUMP JUMPDEST DUP2 EQ PUSH2 0x8CF JUMPI PUSH1 0x0 DUP1 REVERT JUMPDEST POP JUMP JUMPDEST PUSH2 0x8DB DUP2 PUSH2 0x789 JUMP JUMPDEST DUP2 EQ PUSH2 0x8E6 JUMPI PUSH1 0x0 DUP1 REVERT JUMPDEST POP JUMP INVALID LOG2 PUSH5 0x6970667358 0x22 SLT KECCAK256 0x2E COINBASE SDIV CODESIZE 0x2E DUP13 SWAP13 MULMOD PUSH19 0x7AFD3D7A12F3036747704E84F0EBDC596B6741 LOG4 PUSH5 0x276164736F PUSH13 0x63430008060033000000000000 "},"methodIdentifiers":{"getBytes()":"0bcd3b33","getBytes32()":"1f903037","getUint256()":"68895979","requestId()":"006d6cae","requestedBytes(bytes32,bytes)":"46ddd1ff","requestedBytes32(bytes32,bytes32)":"ed53e511","requestedUint256(bytes32,uint256)":"3345b4d0","setBytes(bytes)":"da359dc8","setBytes32(bytes32)":"c2b12a73","setUint256(uint256)":"d2282dc5"}}}}}